{
  "contractName": "DiamondCutFacet",
  "sourceName": "solc_0.8/diamond/facets/DiamondCutFacet.sol",
  "abi": [
    {
      "anonymous": false,
      "inputs": [
        {
          "components": [
            {
              "internalType": "address",
              "name": "facetAddress",
              "type": "address"
            },
            {
              "internalType": "enum IDiamondCut.FacetCutAction",
              "name": "action",
              "type": "uint8"
            },
            {
              "internalType": "bytes4[]",
              "name": "functionSelectors",
              "type": "bytes4[]"
            }
          ],
          "indexed": false,
          "internalType": "struct IDiamondCut.FacetCut[]",
          "name": "_diamondCut",
          "type": "tuple[]"
        },
        {
          "indexed": false,
          "internalType": "address",
          "name": "_init",
          "type": "address"
        },
        {
          "indexed": false,
          "internalType": "bytes",
          "name": "_calldata",
          "type": "bytes"
        }
      ],
      "name": "DiamondCut",
      "type": "event"
    },
    {
      "anonymous": false,
      "inputs": [
        {
          "components": [
            {
              "internalType": "address",
              "name": "facetAddress",
              "type": "address"
            },
            {
              "internalType": "enum IDiamondCut.FacetCutAction",
              "name": "action",
              "type": "uint8"
            },
            {
              "internalType": "bytes4[]",
              "name": "functionSelectors",
              "type": "bytes4[]"
            }
          ],
          "indexed": false,
          "internalType": "struct IDiamondCut.FacetCut[]",
          "name": "_diamondCut",
          "type": "tuple[]"
        },
        {
          "indexed": false,
          "internalType": "address",
          "name": "_init",
          "type": "address"
        },
        {
          "indexed": false,
          "internalType": "bytes",
          "name": "_calldata",
          "type": "bytes"
        }
      ],
      "name": "DiamondCut",
      "type": "event"
    },
    {
      "inputs": [
        {
          "components": [
            {
              "internalType": "address",
              "name": "facetAddress",
              "type": "address"
            },
            {
              "internalType": "enum IDiamondCut.FacetCutAction",
              "name": "action",
              "type": "uint8"
            },
            {
              "internalType": "bytes4[]",
              "name": "functionSelectors",
              "type": "bytes4[]"
            }
          ],
          "internalType": "struct IDiamondCut.FacetCut[]",
          "name": "_diamondCut",
          "type": "tuple[]"
        },
        {
          "internalType": "address",
          "name": "_init",
          "type": "address"
        },
        {
          "internalType": "bytes",
          "name": "_calldata",
          "type": "bytes"
        }
      ],
      "name": "diamondCut",
      "outputs": [],
      "stateMutability": "nonpayable",
      "type": "function"
    }
  ],
  "bytecode": "0x608060405234801561001057600080fd5b50611d13806100206000396000f3fe608060405234801561001057600080fd5b506004361061002b5760003560e01c80631f931c1c14610030575b600080fd5b61004361003e366004611674565b610045565b005b61004d61009e565b61009761005a85876117f1565b8484848080601f01602080910402602001604051908101604052809392919081815260200183838082843760009201919091525061016e92505050565b5050505050565b7fc8fcad8db84d3cc18b4c41d551ea0ee66dd599cde068d998e57d5e09332c131c6004015473ffffffffffffffffffffffffffffffffffffffff16331461016c576040517f08c379a000000000000000000000000000000000000000000000000000000000815260206004820152602260248201527f4c69624469616d6f6e643a204d75737420626520636f6e7472616374206f776e60448201527f657200000000000000000000000000000000000000000000000000000000000060648201526084015b60405180910390fd5b565b60005b835181101561036457600084828151811061018e5761018e61194d565b6020026020010151602001519050600060028111156101af576101af61197c565b8160028111156101c1576101c161197c565b0361020f5761020a8583815181106101db576101db61194d565b6020026020010151600001518684815181106101f9576101f961194d565b6020026020010151604001516103af565b610351565b60018160028111156102235761022361197c565b0361026c5761020a85838151811061023d5761023d61194d565b60200260200101516000015186848151811061025b5761025b61194d565b60200260200101516040015161075e565b60028160028111156102805761028061197c565b036102c95761020a85838151811061029a5761029a61194d565b6020026020010151600001518684815181106102b8576102b861194d565b602002602001015160400151610b1d565b6040517f08c379a000000000000000000000000000000000000000000000000000000000815260206004820152602760248201527f4c69624469616d6f6e644375743a20496e636f7272656374204661636574437560448201527f74416374696f6e000000000000000000000000000000000000000000000000006064820152608401610163565b508061035c816119da565b915050610171565b507f8faa70878671ccd212d20771b795c50af8fd3ff6cf27f4bde57e5d4de0aeb67383838360405161039893929190611a80565b60405180910390a16103aa8282610d10565b505050565b6000815111610440576040517f08c379a000000000000000000000000000000000000000000000000000000000815260206004820152602b60248201527f4c69624469616d6f6e644375743a204e6f2073656c6563746f727320696e206660448201527f6163657420746f206375740000000000000000000000000000000000000000006064820152608401610163565b7fc8fcad8db84d3cc18b4c41d551ea0ee66dd599cde068d998e57d5e09332c131c73ffffffffffffffffffffffffffffffffffffffff8316610504576040517f08c379a000000000000000000000000000000000000000000000000000000000815260206004820152602c60248201527f4c69624469616d6f6e644375743a204164642066616365742063616e2774206260448201527f65206164647265737328302900000000000000000000000000000000000000006064820152608401610163565b73ffffffffffffffffffffffffffffffffffffffff83166000908152600182016020526040812054906bffffffffffffffffffffffff8216900361054c5761054c8285610fc3565b60005b835181101561009757600084828151811061056c5761056c61194d565b6020908102919091018101517fffffffff00000000000000000000000000000000000000000000000000000000811660009081529186905260409091205490915073ffffffffffffffffffffffffffffffffffffffff168015610651576040517f08c379a000000000000000000000000000000000000000000000000000000000815260206004820152603560248201527f4c69624469616d6f6e644375743a2043616e2774206164642066756e6374696f60448201527f6e207468617420616c72656164792065786973747300000000000000000000006064820152608401610163565b7fffffffff000000000000000000000000000000000000000000000000000000008216600081815260208781526040808320805473ffffffffffffffffffffffffffffffffffffffff908116740100000000000000000000000000000000000000006bffffffffffffffffffffffff8c16021782558c168085526001808c0185529285208054938401815585528385206008840401805463ffffffff60079095166004026101000a948502191660e08a901c94909402939093179092559390925287905281547fffffffffffffffffffffffff0000000000000000000000000000000000000000161790558361074681611be8565b94505050508080610756906119da565b91505061054f565b60008151116107ef576040517f08c379a000000000000000000000000000000000000000000000000000000000815260206004820152602b60248201527f4c69624469616d6f6e644375743a204e6f2073656c6563746f727320696e206660448201527f6163657420746f206375740000000000000000000000000000000000000000006064820152608401610163565b7fc8fcad8db84d3cc18b4c41d551ea0ee66dd599cde068d998e57d5e09332c131c73ffffffffffffffffffffffffffffffffffffffff83166108b3576040517f08c379a000000000000000000000000000000000000000000000000000000000815260206004820152602c60248201527f4c69624469616d6f6e644375743a204164642066616365742063616e2774206260448201527f65206164647265737328302900000000000000000000000000000000000000006064820152608401610163565b73ffffffffffffffffffffffffffffffffffffffff83166000908152600182016020526040812054906bffffffffffffffffffffffff821690036108fb576108fb8285610fc3565b60005b835181101561009757600084828151811061091b5761091b61194d565b6020908102919091018101517fffffffff00000000000000000000000000000000000000000000000000000000811660009081529186905260409091205490915073ffffffffffffffffffffffffffffffffffffffff9081169087168103610a05576040517f08c379a000000000000000000000000000000000000000000000000000000000815260206004820152603860248201527f4c69624469616d6f6e644375743a2043616e2774207265706c6163652066756e60448201527f6374696f6e20776974682073616d652066756e6374696f6e00000000000000006064820152608401610163565b610a10858284611052565b7fffffffff000000000000000000000000000000000000000000000000000000008216600081815260208781526040808320805473ffffffffffffffffffffffffffffffffffffffff908116740100000000000000000000000000000000000000006bffffffffffffffffffffffff8c16021782558c168085526001808c0185529285208054938401815585528385206008840401805463ffffffff60079095166004026101000a948502191660e08a901c94909402939093179092559390925287905281547fffffffffffffffffffffffff00000000000000000000000000000000000000001617905583610b0581611be8565b94505050508080610b15906119da565b9150506108fe565b6000815111610bae576040517f08c379a000000000000000000000000000000000000000000000000000000000815260206004820152602b60248201527f4c69624469616d6f6e644375743a204e6f2073656c6563746f727320696e206660448201527f6163657420746f206375740000000000000000000000000000000000000000006064820152608401610163565b7fc8fcad8db84d3cc18b4c41d551ea0ee66dd599cde068d998e57d5e09332c131c73ffffffffffffffffffffffffffffffffffffffff831615610c73576040517f08c379a000000000000000000000000000000000000000000000000000000000815260206004820152603660248201527f4c69624469616d6f6e644375743a2052656d6f7665206661636574206164647260448201527f657373206d7573742062652061646472657373283029000000000000000000006064820152608401610163565b60005b8251811015610d0a576000838281518110610c9357610c9361194d565b6020908102919091018101517fffffffff00000000000000000000000000000000000000000000000000000000811660009081529185905260409091205490915073ffffffffffffffffffffffffffffffffffffffff16610cf5848284611052565b50508080610d02906119da565b915050610c76565b50505050565b73ffffffffffffffffffffffffffffffffffffffff8216610dbe57805115610dba576040517f08c379a000000000000000000000000000000000000000000000000000000000815260206004820152603c60248201527f4c69624469616d6f6e644375743a205f696e697420697320616464726573732860448201527f3029206275745f63616c6c64617461206973206e6f7420656d707479000000006064820152608401610163565b5050565b6000815111610e4f576040517f08c379a000000000000000000000000000000000000000000000000000000000815260206004820152603d60248201527f4c69624469616d6f6e644375743a205f63616c6c6461746120697320656d707460448201527f7920627574205f696e6974206973206e6f7420616464726573732830290000006064820152608401610163565b73ffffffffffffffffffffffffffffffffffffffff82163014610e8e57610e8e82604051806060016040528060288152602001611c92602891396115c7565b6000808373ffffffffffffffffffffffffffffffffffffffff1683604051610eb69190611c13565b600060405180830381855af49150503d8060008114610ef1576040519150601f19603f3d011682016040523d82523d6000602084013e610ef6565b606091505b509150915081610d0a57805115610f3b57806040517f08c379a00000000000000000000000000000000000000000000000000000000081526004016101639190611c2f565b6040517f08c379a000000000000000000000000000000000000000000000000000000000815260206004820152602660248201527f4c69624469616d6f6e644375743a205f696e69742066756e6374696f6e20726560448201527f76657274656400000000000000000000000000000000000000000000000000006064820152608401610163565b610fe581604051806060016040528060248152602001611cba602491396115c7565b60028201805473ffffffffffffffffffffffffffffffffffffffff90921660008181526001948501602090815260408220860185905594840183559182529290200180547fffffffffffffffffffffffff0000000000000000000000000000000000000000169091179055565b73ffffffffffffffffffffffffffffffffffffffff82166110f5576040517f08c379a000000000000000000000000000000000000000000000000000000000815260206004820152603760248201527f4c69624469616d6f6e644375743a2043616e27742072656d6f76652066756e6360448201527f74696f6e207468617420646f65736e27742065786973740000000000000000006064820152608401610163565b3073ffffffffffffffffffffffffffffffffffffffff83160361119a576040517f08c379a000000000000000000000000000000000000000000000000000000000815260206004820152602e60248201527f4c69624469616d6f6e644375743a2043616e27742072656d6f766520696d6d7560448201527f7461626c652066756e6374696f6e0000000000000000000000000000000000006064820152608401610163565b7fffffffff0000000000000000000000000000000000000000000000000000000081166000908152602084815260408083205473ffffffffffffffffffffffffffffffffffffffff86168452600180880190935290832054740100000000000000000000000000000000000000009091046bffffffffffffffffffffffff16929161122491611c49565b905080821461136b5773ffffffffffffffffffffffffffffffffffffffff8416600090815260018601602052604081208054839081106112665761126661194d565b6000918252602080832060088304015473ffffffffffffffffffffffffffffffffffffffff8916845260018a019091526040909220805460079092166004026101000a90920460e01b9250829190859081106112c4576112c461194d565b600091825260208083206008830401805463ffffffff60079094166004026101000a938402191660e09590951c929092029390931790557fffffffff0000000000000000000000000000000000000000000000000000000092909216825286905260409020805473ffffffffffffffffffffffffffffffffffffffff16740100000000000000000000000000000000000000006bffffffffffffffffffffffff8516021790555b73ffffffffffffffffffffffffffffffffffffffff8416600090815260018601602052604090208054806113a1576113a1611c62565b6000828152602080822060087fffffffffffffffffffffffffffffffffffffffffffffffffffffffffffffffff90940193840401805463ffffffff600460078716026101000a0219169055919092557fffffffff00000000000000000000000000000000000000000000000000000000851682528690526040812081905581900361009757600285015460009061143a90600190611c49565b73ffffffffffffffffffffffffffffffffffffffff861660009081526001808901602052604090912001549091508082146115285760008760020183815481106114865761148661194d565b60009182526020909120015460028901805473ffffffffffffffffffffffffffffffffffffffff90921692508291849081106114c4576114c461194d565b600091825260208083209190910180547fffffffffffffffffffffffff00000000000000000000000000000000000000001673ffffffffffffffffffffffffffffffffffffffff948516179055929091168152600189810190925260409020018190555b8660020180548061153b5761153b611c62565b6000828152602080822083017fffffffffffffffffffffffffffffffffffffffffffffffffffffffffffffffff90810180547fffffffffffffffffffffffff000000000000000000000000000000000000000016905590920190925573ffffffffffffffffffffffffffffffffffffffff88168252600189810190915260408220015550505050505050565b813b8181610d0a576040517f08c379a00000000000000000000000000000000000000000000000000000000081526004016101639190611c2f565b803573ffffffffffffffffffffffffffffffffffffffff8116811461162657600080fd5b919050565b60008083601f84011261163d57600080fd5b50813567ffffffffffffffff81111561165557600080fd5b60208301915083602082850101111561166d57600080fd5b9250929050565b60008060008060006060868803121561168c57600080fd5b853567ffffffffffffffff808211156116a457600080fd5b818801915088601f8301126116b857600080fd5b8135818111156116c757600080fd5b8960208260051b85010111156116dc57600080fd5b602083019750809650506116f260208901611602565b9450604088013591508082111561170857600080fd5b506117158882890161162b565b969995985093965092949392505050565b7f4e487b7100000000000000000000000000000000000000000000000000000000600052604160045260246000fd5b6040516060810167ffffffffffffffff8111828210171561177857611778611726565b60405290565b604051601f82017fffffffffffffffffffffffffffffffffffffffffffffffffffffffffffffffe016810167ffffffffffffffff811182821017156117c5576117c5611726565b604052919050565b600067ffffffffffffffff8211156117e7576117e7611726565b5060051b60200190565b60006118046117ff846117cd565b61177e565b83815260208082019190600586811b86013681111561182257600080fd5b865b8181101561194057803567ffffffffffffffff808211156118455760008081fd5b818a0191506060823603121561185b5760008081fd5b611863611755565b61186c83611602565b815286830135600381106118805760008081fd5b81880152604083810135838111156118985760008081fd5b939093019236601f8501126118af57600092508283fd5b833592506118bf6117ff846117cd565b83815292871b840188019288810190368511156118dc5760008081fd5b948901945b848610156119295785357fffffffff000000000000000000000000000000000000000000000000000000008116811461191a5760008081fd5b825294890194908901906118e1565b918301919091525088525050948301948301611824565b5092979650505050505050565b7f4e487b7100000000000000000000000000000000000000000000000000000000600052603260045260246000fd5b7f4e487b7100000000000000000000000000000000000000000000000000000000600052602160045260246000fd5b7f4e487b7100000000000000000000000000000000000000000000000000000000600052601160045260246000fd5b60007fffffffffffffffffffffffffffffffffffffffffffffffffffffffffffffffff8203611a0b57611a0b6119ab565b5060010190565b60005b83811015611a2d578181015183820152602001611a15565b50506000910152565b60008151808452611a4e816020860160208601611a12565b601f017fffffffffffffffffffffffffffffffffffffffffffffffffffffffffffffffe0169290920160200192915050565b60006060808301818452808751808352608092508286019150828160051b8701016020808b0160005b84811015611bab577fffffffffffffffffffffffffffffffffffffffffffffffffffffffffffffff808a8503018652815188850173ffffffffffffffffffffffffffffffffffffffff82511686528482015160038110611b32577f4e487b7100000000000000000000000000000000000000000000000000000000600052602160045260246000fd5b868601526040918201519186018a905281519081905290840190600090898701905b80831015611b965783517fffffffff00000000000000000000000000000000000000000000000000000000168252928601926001929092019190860190611b54565b50978501979550505090820190600101611aa9565b505073ffffffffffffffffffffffffffffffffffffffff8a16908801528681036040880152611bda8189611a36565b9a9950505050505050505050565b60006bffffffffffffffffffffffff808316818103611c0957611c096119ab565b6001019392505050565b60008251611c25818460208701611a12565b9190910192915050565b602081526000611c426020830184611a36565b9392505050565b81810381811115611c5c57611c5c6119ab565b92915050565b7f4e487b7100000000000000000000000000000000000000000000000000000000600052603160045260246000fdfe4c69624469616d6f6e644375743a205f696e6974206164647265737320686173206e6f20636f64654c69624469616d6f6e644375743a204e657720666163657420686173206e6f20636f6465a26469706673582212206697f6c880dde8e5f0bf03170852705678eb5a74fe4478fbc3edd37cca5de42d64736f6c63430008140033",
  "linkReferences": {},
  "deployedLinkReferences": {},
  "devdoc": {
    "kind": "dev",
    "methods": {
      "diamondCut((address,uint8,bytes4[])[],address,bytes)": {
        "params": {
          "_calldata": "A function call, including function selector and arguments                  _calldata is executed with delegatecall on _init",
          "_diamondCut": "Contains the facet addresses and function selectors",
          "_init": "The address of the contract or facet to execute _calldata"
        }
      }
    },
    "version": 1
  },
  "evm": {
    "bytecode": {
      "linkReferences": {},
      "opcodes": "PUSH1 0x80 PUSH1 0x40 MSTORE CALLVALUE DUP1 ISZERO PUSH2 0x10 JUMPI PUSH1 0x0 DUP1 REVERT JUMPDEST POP PUSH2 0x1D13 DUP1 PUSH2 0x20 PUSH1 0x0 CODECOPY PUSH1 0x0 RETURN INVALID PUSH1 0x80 PUSH1 0x40 MSTORE CALLVALUE DUP1 ISZERO PUSH2 0x10 JUMPI PUSH1 0x0 DUP1 REVERT JUMPDEST POP PUSH1 0x4 CALLDATASIZE LT PUSH2 0x2B JUMPI PUSH1 0x0 CALLDATALOAD PUSH1 0xE0 SHR DUP1 PUSH4 0x1F931C1C EQ PUSH2 0x30 JUMPI JUMPDEST PUSH1 0x0 DUP1 REVERT JUMPDEST PUSH2 0x43 PUSH2 0x3E CALLDATASIZE PUSH1 0x4 PUSH2 0x1674 JUMP JUMPDEST PUSH2 0x45 JUMP JUMPDEST STOP JUMPDEST PUSH2 0x4D PUSH2 0x9E JUMP JUMPDEST PUSH2 0x97 PUSH2 0x5A DUP6 DUP8 PUSH2 0x17F1 JUMP JUMPDEST DUP5 DUP5 DUP5 DUP1 DUP1 PUSH1 0x1F ADD PUSH1 0x20 DUP1 SWAP2 DIV MUL PUSH1 0x20 ADD PUSH1 0x40 MLOAD SWAP1 DUP2 ADD PUSH1 0x40 MSTORE DUP1 SWAP4 SWAP3 SWAP2 SWAP1 DUP2 DUP2 MSTORE PUSH1 0x20 ADD DUP4 DUP4 DUP1 DUP3 DUP5 CALLDATACOPY PUSH1 0x0 SWAP3 ADD SWAP2 SWAP1 SWAP2 MSTORE POP PUSH2 0x16E SWAP3 POP POP POP JUMP JUMPDEST POP POP POP POP POP JUMP JUMPDEST PUSH32 0xC8FCAD8DB84D3CC18B4C41D551EA0EE66DD599CDE068D998E57D5E09332C131C PUSH1 0x4 ADD SLOAD PUSH20 0xFFFFFFFFFFFFFFFFFFFFFFFFFFFFFFFFFFFFFFFF AND CALLER EQ PUSH2 0x16C JUMPI PUSH1 0x40 MLOAD PUSH32 0x8C379A000000000000000000000000000000000000000000000000000000000 DUP2 MSTORE PUSH1 0x20 PUSH1 0x4 DUP3 ADD MSTORE PUSH1 0x22 PUSH1 0x24 DUP3 ADD MSTORE PUSH32 0x4C69624469616D6F6E643A204D75737420626520636F6E7472616374206F776E PUSH1 0x44 DUP3 ADD MSTORE PUSH32 0x6572000000000000000000000000000000000000000000000000000000000000 PUSH1 0x64 DUP3 ADD MSTORE PUSH1 0x84 ADD JUMPDEST PUSH1 0x40 MLOAD DUP1 SWAP2 SUB SWAP1 REVERT JUMPDEST JUMP JUMPDEST PUSH1 0x0 JUMPDEST DUP4 MLOAD DUP2 LT ISZERO PUSH2 0x364 JUMPI PUSH1 0x0 DUP5 DUP3 DUP2 MLOAD DUP2 LT PUSH2 0x18E JUMPI PUSH2 0x18E PUSH2 0x194D JUMP JUMPDEST PUSH1 0x20 MUL PUSH1 0x20 ADD ADD MLOAD PUSH1 0x20 ADD MLOAD SWAP1 POP PUSH1 0x0 PUSH1 0x2 DUP2 GT ISZERO PUSH2 0x1AF JUMPI PUSH2 0x1AF PUSH2 0x197C JUMP JUMPDEST DUP2 PUSH1 0x2 DUP2 GT ISZERO PUSH2 0x1C1 JUMPI PUSH2 0x1C1 PUSH2 0x197C JUMP JUMPDEST SUB PUSH2 0x20F JUMPI PUSH2 0x20A DUP6 DUP4 DUP2 MLOAD DUP2 LT PUSH2 0x1DB JUMPI PUSH2 0x1DB PUSH2 0x194D JUMP JUMPDEST PUSH1 0x20 MUL PUSH1 0x20 ADD ADD MLOAD PUSH1 0x0 ADD MLOAD DUP7 DUP5 DUP2 MLOAD DUP2 LT PUSH2 0x1F9 JUMPI PUSH2 0x1F9 PUSH2 0x194D JUMP JUMPDEST PUSH1 0x20 MUL PUSH1 0x20 ADD ADD MLOAD PUSH1 0x40 ADD MLOAD PUSH2 0x3AF JUMP JUMPDEST PUSH2 0x351 JUMP JUMPDEST PUSH1 0x1 DUP2 PUSH1 0x2 DUP2 GT ISZERO PUSH2 0x223 JUMPI PUSH2 0x223 PUSH2 0x197C JUMP JUMPDEST SUB PUSH2 0x26C JUMPI PUSH2 0x20A DUP6 DUP4 DUP2 MLOAD DUP2 LT PUSH2 0x23D JUMPI PUSH2 0x23D PUSH2 0x194D JUMP JUMPDEST PUSH1 0x20 MUL PUSH1 0x20 ADD ADD MLOAD PUSH1 0x0 ADD MLOAD DUP7 DUP5 DUP2 MLOAD DUP2 LT PUSH2 0x25B JUMPI PUSH2 0x25B PUSH2 0x194D JUMP JUMPDEST PUSH1 0x20 MUL PUSH1 0x20 ADD ADD MLOAD PUSH1 0x40 ADD MLOAD PUSH2 0x75E JUMP JUMPDEST PUSH1 0x2 DUP2 PUSH1 0x2 DUP2 GT ISZERO PUSH2 0x280 JUMPI PUSH2 0x280 PUSH2 0x197C JUMP JUMPDEST SUB PUSH2 0x2C9 JUMPI PUSH2 0x20A DUP6 DUP4 DUP2 MLOAD DUP2 LT PUSH2 0x29A JUMPI PUSH2 0x29A PUSH2 0x194D JUMP JUMPDEST PUSH1 0x20 MUL PUSH1 0x20 ADD ADD MLOAD PUSH1 0x0 ADD MLOAD DUP7 DUP5 DUP2 MLOAD DUP2 LT PUSH2 0x2B8 JUMPI PUSH2 0x2B8 PUSH2 0x194D JUMP JUMPDEST PUSH1 0x20 MUL PUSH1 0x20 ADD ADD MLOAD PUSH1 0x40 ADD MLOAD PUSH2 0xB1D JUMP JUMPDEST PUSH1 0x40 MLOAD PUSH32 0x8C379A000000000000000000000000000000000000000000000000000000000 DUP2 MSTORE PUSH1 0x20 PUSH1 0x4 DUP3 ADD MSTORE PUSH1 0x27 PUSH1 0x24 DUP3 ADD MSTORE PUSH32 0x4C69624469616D6F6E644375743A20496E636F72726563742046616365744375 PUSH1 0x44 DUP3 ADD MSTORE PUSH32 0x74416374696F6E00000000000000000000000000000000000000000000000000 PUSH1 0x64 DUP3 ADD MSTORE PUSH1 0x84 ADD PUSH2 0x163 JUMP JUMPDEST POP DUP1 PUSH2 0x35C DUP2 PUSH2 0x19DA JUMP JUMPDEST SWAP2 POP POP PUSH2 0x171 JUMP JUMPDEST POP PUSH32 0x8FAA70878671CCD212D20771B795C50AF8FD3FF6CF27F4BDE57E5D4DE0AEB673 DUP4 DUP4 DUP4 PUSH1 0x40 MLOAD PUSH2 0x398 SWAP4 SWAP3 SWAP2 SWAP1 PUSH2 0x1A80 JUMP JUMPDEST PUSH1 0x40 MLOAD DUP1 SWAP2 SUB SWAP1 LOG1 PUSH2 0x3AA DUP3 DUP3 PUSH2 0xD10 JUMP JUMPDEST POP POP POP JUMP JUMPDEST PUSH1 0x0 DUP2 MLOAD GT PUSH2 0x440 JUMPI PUSH1 0x40 MLOAD PUSH32 0x8C379A000000000000000000000000000000000000000000000000000000000 DUP2 MSTORE PUSH1 0x20 PUSH1 0x4 DUP3 ADD MSTORE PUSH1 0x2B PUSH1 0x24 DUP3 ADD MSTORE PUSH32 0x4C69624469616D6F6E644375743A204E6F2073656C6563746F727320696E2066 PUSH1 0x44 DUP3 ADD MSTORE PUSH32 0x6163657420746F20637574000000000000000000000000000000000000000000 PUSH1 0x64 DUP3 ADD MSTORE PUSH1 0x84 ADD PUSH2 0x163 JUMP JUMPDEST PUSH32 0xC8FCAD8DB84D3CC18B4C41D551EA0EE66DD599CDE068D998E57D5E09332C131C PUSH20 0xFFFFFFFFFFFFFFFFFFFFFFFFFFFFFFFFFFFFFFFF DUP4 AND PUSH2 0x504 JUMPI PUSH1 0x40 MLOAD PUSH32 0x8C379A000000000000000000000000000000000000000000000000000000000 DUP2 MSTORE PUSH1 0x20 PUSH1 0x4 DUP3 ADD MSTORE PUSH1 0x2C PUSH1 0x24 DUP3 ADD MSTORE PUSH32 0x4C69624469616D6F6E644375743A204164642066616365742063616E27742062 PUSH1 0x44 DUP3 ADD MSTORE PUSH32 0x6520616464726573732830290000000000000000000000000000000000000000 PUSH1 0x64 DUP3 ADD MSTORE PUSH1 0x84 ADD PUSH2 0x163 JUMP JUMPDEST PUSH20 0xFFFFFFFFFFFFFFFFFFFFFFFFFFFFFFFFFFFFFFFF DUP4 AND PUSH1 0x0 SWAP1 DUP2 MSTORE PUSH1 0x1 DUP3 ADD PUSH1 0x20 MSTORE PUSH1 0x40 DUP2 KECCAK256 SLOAD SWAP1 PUSH12 0xFFFFFFFFFFFFFFFFFFFFFFFF DUP3 AND SWAP1 SUB PUSH2 0x54C JUMPI PUSH2 0x54C DUP3 DUP6 PUSH2 0xFC3 JUMP JUMPDEST PUSH1 0x0 JUMPDEST DUP4 MLOAD DUP2 LT ISZERO PUSH2 0x97 JUMPI PUSH1 0x0 DUP5 DUP3 DUP2 MLOAD DUP2 LT PUSH2 0x56C JUMPI PUSH2 0x56C PUSH2 0x194D JUMP JUMPDEST PUSH1 0x20 SWAP1 DUP2 MUL SWAP2 SWAP1 SWAP2 ADD DUP2 ADD MLOAD PUSH32 0xFFFFFFFF00000000000000000000000000000000000000000000000000000000 DUP2 AND PUSH1 0x0 SWAP1 DUP2 MSTORE SWAP2 DUP7 SWAP1 MSTORE PUSH1 0x40 SWAP1 SWAP2 KECCAK256 SLOAD SWAP1 SWAP2 POP PUSH20 0xFFFFFFFFFFFFFFFFFFFFFFFFFFFFFFFFFFFFFFFF AND DUP1 ISZERO PUSH2 0x651 JUMPI PUSH1 0x40 MLOAD PUSH32 0x8C379A000000000000000000000000000000000000000000000000000000000 DUP2 MSTORE PUSH1 0x20 PUSH1 0x4 DUP3 ADD MSTORE PUSH1 0x35 PUSH1 0x24 DUP3 ADD MSTORE PUSH32 0x4C69624469616D6F6E644375743A2043616E2774206164642066756E6374696F PUSH1 0x44 DUP3 ADD MSTORE PUSH32 0x6E207468617420616C7265616479206578697374730000000000000000000000 PUSH1 0x64 DUP3 ADD MSTORE PUSH1 0x84 ADD PUSH2 0x163 JUMP JUMPDEST PUSH32 0xFFFFFFFF00000000000000000000000000000000000000000000000000000000 DUP3 AND PUSH1 0x0 DUP2 DUP2 MSTORE PUSH1 0x20 DUP8 DUP2 MSTORE PUSH1 0x40 DUP1 DUP4 KECCAK256 DUP1 SLOAD PUSH20 0xFFFFFFFFFFFFFFFFFFFFFFFFFFFFFFFFFFFFFFFF SWAP1 DUP2 AND PUSH21 0x10000000000000000000000000000000000000000 PUSH12 0xFFFFFFFFFFFFFFFFFFFFFFFF DUP13 AND MUL OR DUP3 SSTORE DUP13 AND DUP1 DUP6 MSTORE PUSH1 0x1 DUP1 DUP13 ADD DUP6 MSTORE SWAP3 DUP6 KECCAK256 DUP1 SLOAD SWAP4 DUP5 ADD DUP2 SSTORE DUP6 MSTORE DUP4 DUP6 KECCAK256 PUSH1 0x8 DUP5 DIV ADD DUP1 SLOAD PUSH4 0xFFFFFFFF PUSH1 0x7 SWAP1 SWAP6 AND PUSH1 0x4 MUL PUSH2 0x100 EXP SWAP5 DUP6 MUL NOT AND PUSH1 0xE0 DUP11 SWAP1 SHR SWAP5 SWAP1 SWAP5 MUL SWAP4 SWAP1 SWAP4 OR SWAP1 SWAP3 SSTORE SWAP4 SWAP1 SWAP3 MSTORE DUP8 SWAP1 MSTORE DUP2 SLOAD PUSH32 0xFFFFFFFFFFFFFFFFFFFFFFFF0000000000000000000000000000000000000000 AND OR SWAP1 SSTORE DUP4 PUSH2 0x746 DUP2 PUSH2 0x1BE8 JUMP JUMPDEST SWAP5 POP POP POP POP DUP1 DUP1 PUSH2 0x756 SWAP1 PUSH2 0x19DA JUMP JUMPDEST SWAP2 POP POP PUSH2 0x54F JUMP JUMPDEST PUSH1 0x0 DUP2 MLOAD GT PUSH2 0x7EF JUMPI PUSH1 0x40 MLOAD PUSH32 0x8C379A000000000000000000000000000000000000000000000000000000000 DUP2 MSTORE PUSH1 0x20 PUSH1 0x4 DUP3 ADD MSTORE PUSH1 0x2B PUSH1 0x24 DUP3 ADD MSTORE PUSH32 0x4C69624469616D6F6E644375743A204E6F2073656C6563746F727320696E2066 PUSH1 0x44 DUP3 ADD MSTORE PUSH32 0x6163657420746F20637574000000000000000000000000000000000000000000 PUSH1 0x64 DUP3 ADD MSTORE PUSH1 0x84 ADD PUSH2 0x163 JUMP JUMPDEST PUSH32 0xC8FCAD8DB84D3CC18B4C41D551EA0EE66DD599CDE068D998E57D5E09332C131C PUSH20 0xFFFFFFFFFFFFFFFFFFFFFFFFFFFFFFFFFFFFFFFF DUP4 AND PUSH2 0x8B3 JUMPI PUSH1 0x40 MLOAD PUSH32 0x8C379A000000000000000000000000000000000000000000000000000000000 DUP2 MSTORE PUSH1 0x20 PUSH1 0x4 DUP3 ADD MSTORE PUSH1 0x2C PUSH1 0x24 DUP3 ADD MSTORE PUSH32 0x4C69624469616D6F6E644375743A204164642066616365742063616E27742062 PUSH1 0x44 DUP3 ADD MSTORE PUSH32 0x6520616464726573732830290000000000000000000000000000000000000000 PUSH1 0x64 DUP3 ADD MSTORE PUSH1 0x84 ADD PUSH2 0x163 JUMP JUMPDEST PUSH20 0xFFFFFFFFFFFFFFFFFFFFFFFFFFFFFFFFFFFFFFFF DUP4 AND PUSH1 0x0 SWAP1 DUP2 MSTORE PUSH1 0x1 DUP3 ADD PUSH1 0x20 MSTORE PUSH1 0x40 DUP2 KECCAK256 SLOAD SWAP1 PUSH12 0xFFFFFFFFFFFFFFFFFFFFFFFF DUP3 AND SWAP1 SUB PUSH2 0x8FB JUMPI PUSH2 0x8FB DUP3 DUP6 PUSH2 0xFC3 JUMP JUMPDEST PUSH1 0x0 JUMPDEST DUP4 MLOAD DUP2 LT ISZERO PUSH2 0x97 JUMPI PUSH1 0x0 DUP5 DUP3 DUP2 MLOAD DUP2 LT PUSH2 0x91B JUMPI PUSH2 0x91B PUSH2 0x194D JUMP JUMPDEST PUSH1 0x20 SWAP1 DUP2 MUL SWAP2 SWAP1 SWAP2 ADD DUP2 ADD MLOAD PUSH32 0xFFFFFFFF00000000000000000000000000000000000000000000000000000000 DUP2 AND PUSH1 0x0 SWAP1 DUP2 MSTORE SWAP2 DUP7 SWAP1 MSTORE PUSH1 0x40 SWAP1 SWAP2 KECCAK256 SLOAD SWAP1 SWAP2 POP PUSH20 0xFFFFFFFFFFFFFFFFFFFFFFFFFFFFFFFFFFFFFFFF SWAP1 DUP2 AND SWAP1 DUP8 AND DUP2 SUB PUSH2 0xA05 JUMPI PUSH1 0x40 MLOAD PUSH32 0x8C379A000000000000000000000000000000000000000000000000000000000 DUP2 MSTORE PUSH1 0x20 PUSH1 0x4 DUP3 ADD MSTORE PUSH1 0x38 PUSH1 0x24 DUP3 ADD MSTORE PUSH32 0x4C69624469616D6F6E644375743A2043616E2774207265706C6163652066756E PUSH1 0x44 DUP3 ADD MSTORE PUSH32 0x6374696F6E20776974682073616D652066756E6374696F6E0000000000000000 PUSH1 0x64 DUP3 ADD MSTORE PUSH1 0x84 ADD PUSH2 0x163 JUMP JUMPDEST PUSH2 0xA10 DUP6 DUP3 DUP5 PUSH2 0x1052 JUMP JUMPDEST PUSH32 0xFFFFFFFF00000000000000000000000000000000000000000000000000000000 DUP3 AND PUSH1 0x0 DUP2 DUP2 MSTORE PUSH1 0x20 DUP8 DUP2 MSTORE PUSH1 0x40 DUP1 DUP4 KECCAK256 DUP1 SLOAD PUSH20 0xFFFFFFFFFFFFFFFFFFFFFFFFFFFFFFFFFFFFFFFF SWAP1 DUP2 AND PUSH21 0x10000000000000000000000000000000000000000 PUSH12 0xFFFFFFFFFFFFFFFFFFFFFFFF DUP13 AND MUL OR DUP3 SSTORE DUP13 AND DUP1 DUP6 MSTORE PUSH1 0x1 DUP1 DUP13 ADD DUP6 MSTORE SWAP3 DUP6 KECCAK256 DUP1 SLOAD SWAP4 DUP5 ADD DUP2 SSTORE DUP6 MSTORE DUP4 DUP6 KECCAK256 PUSH1 0x8 DUP5 DIV ADD DUP1 SLOAD PUSH4 0xFFFFFFFF PUSH1 0x7 SWAP1 SWAP6 AND PUSH1 0x4 MUL PUSH2 0x100 EXP SWAP5 DUP6 MUL NOT AND PUSH1 0xE0 DUP11 SWAP1 SHR SWAP5 SWAP1 SWAP5 MUL SWAP4 SWAP1 SWAP4 OR SWAP1 SWAP3 SSTORE SWAP4 SWAP1 SWAP3 MSTORE DUP8 SWAP1 MSTORE DUP2 SLOAD PUSH32 0xFFFFFFFFFFFFFFFFFFFFFFFF0000000000000000000000000000000000000000 AND OR SWAP1 SSTORE DUP4 PUSH2 0xB05 DUP2 PUSH2 0x1BE8 JUMP JUMPDEST SWAP5 POP POP POP POP DUP1 DUP1 PUSH2 0xB15 SWAP1 PUSH2 0x19DA JUMP JUMPDEST SWAP2 POP POP PUSH2 0x8FE JUMP JUMPDEST PUSH1 0x0 DUP2 MLOAD GT PUSH2 0xBAE JUMPI PUSH1 0x40 MLOAD PUSH32 0x8C379A000000000000000000000000000000000000000000000000000000000 DUP2 MSTORE PUSH1 0x20 PUSH1 0x4 DUP3 ADD MSTORE PUSH1 0x2B PUSH1 0x24 DUP3 ADD MSTORE PUSH32 0x4C69624469616D6F6E644375743A204E6F2073656C6563746F727320696E2066 PUSH1 0x44 DUP3 ADD MSTORE PUSH32 0x6163657420746F20637574000000000000000000000000000000000000000000 PUSH1 0x64 DUP3 ADD MSTORE PUSH1 0x84 ADD PUSH2 0x163 JUMP JUMPDEST PUSH32 0xC8FCAD8DB84D3CC18B4C41D551EA0EE66DD599CDE068D998E57D5E09332C131C PUSH20 0xFFFFFFFFFFFFFFFFFFFFFFFFFFFFFFFFFFFFFFFF DUP4 AND ISZERO PUSH2 0xC73 JUMPI PUSH1 0x40 MLOAD PUSH32 0x8C379A000000000000000000000000000000000000000000000000000000000 DUP2 MSTORE PUSH1 0x20 PUSH1 0x4 DUP3 ADD MSTORE PUSH1 0x36 PUSH1 0x24 DUP3 ADD MSTORE PUSH32 0x4C69624469616D6F6E644375743A2052656D6F76652066616365742061646472 PUSH1 0x44 DUP3 ADD MSTORE PUSH32 0x657373206D757374206265206164647265737328302900000000000000000000 PUSH1 0x64 DUP3 ADD MSTORE PUSH1 0x84 ADD PUSH2 0x163 JUMP JUMPDEST PUSH1 0x0 JUMPDEST DUP3 MLOAD DUP2 LT ISZERO PUSH2 0xD0A JUMPI PUSH1 0x0 DUP4 DUP3 DUP2 MLOAD DUP2 LT PUSH2 0xC93 JUMPI PUSH2 0xC93 PUSH2 0x194D JUMP JUMPDEST PUSH1 0x20 SWAP1 DUP2 MUL SWAP2 SWAP1 SWAP2 ADD DUP2 ADD MLOAD PUSH32 0xFFFFFFFF00000000000000000000000000000000000000000000000000000000 DUP2 AND PUSH1 0x0 SWAP1 DUP2 MSTORE SWAP2 DUP6 SWAP1 MSTORE PUSH1 0x40 SWAP1 SWAP2 KECCAK256 SLOAD SWAP1 SWAP2 POP PUSH20 0xFFFFFFFFFFFFFFFFFFFFFFFFFFFFFFFFFFFFFFFF AND PUSH2 0xCF5 DUP5 DUP3 DUP5 PUSH2 0x1052 JUMP JUMPDEST POP POP DUP1 DUP1 PUSH2 0xD02 SWAP1 PUSH2 0x19DA JUMP JUMPDEST SWAP2 POP POP PUSH2 0xC76 JUMP JUMPDEST POP POP POP POP JUMP JUMPDEST PUSH20 0xFFFFFFFFFFFFFFFFFFFFFFFFFFFFFFFFFFFFFFFF DUP3 AND PUSH2 0xDBE JUMPI DUP1 MLOAD ISZERO PUSH2 0xDBA JUMPI PUSH1 0x40 MLOAD PUSH32 0x8C379A000000000000000000000000000000000000000000000000000000000 DUP2 MSTORE PUSH1 0x20 PUSH1 0x4 DUP3 ADD MSTORE PUSH1 0x3C PUSH1 0x24 DUP3 ADD MSTORE PUSH32 0x4C69624469616D6F6E644375743A205F696E6974206973206164647265737328 PUSH1 0x44 DUP3 ADD MSTORE PUSH32 0x3029206275745F63616C6C64617461206973206E6F7420656D70747900000000 PUSH1 0x64 DUP3 ADD MSTORE PUSH1 0x84 ADD PUSH2 0x163 JUMP JUMPDEST POP POP JUMP JUMPDEST PUSH1 0x0 DUP2 MLOAD GT PUSH2 0xE4F JUMPI PUSH1 0x40 MLOAD PUSH32 0x8C379A000000000000000000000000000000000000000000000000000000000 DUP2 MSTORE PUSH1 0x20 PUSH1 0x4 DUP3 ADD MSTORE PUSH1 0x3D PUSH1 0x24 DUP3 ADD MSTORE PUSH32 0x4C69624469616D6F6E644375743A205F63616C6C6461746120697320656D7074 PUSH1 0x44 DUP3 ADD MSTORE PUSH32 0x7920627574205F696E6974206973206E6F742061646472657373283029000000 PUSH1 0x64 DUP3 ADD MSTORE PUSH1 0x84 ADD PUSH2 0x163 JUMP JUMPDEST PUSH20 0xFFFFFFFFFFFFFFFFFFFFFFFFFFFFFFFFFFFFFFFF DUP3 AND ADDRESS EQ PUSH2 0xE8E JUMPI PUSH2 0xE8E DUP3 PUSH1 0x40 MLOAD DUP1 PUSH1 0x60 ADD PUSH1 0x40 MSTORE DUP1 PUSH1 0x28 DUP2 MSTORE PUSH1 0x20 ADD PUSH2 0x1C92 PUSH1 0x28 SWAP2 CODECOPY PUSH2 0x15C7 JUMP JUMPDEST PUSH1 0x0 DUP1 DUP4 PUSH20 0xFFFFFFFFFFFFFFFFFFFFFFFFFFFFFFFFFFFFFFFF AND DUP4 PUSH1 0x40 MLOAD PUSH2 0xEB6 SWAP2 SWAP1 PUSH2 0x1C13 JUMP JUMPDEST PUSH1 0x0 PUSH1 0x40 MLOAD DUP1 DUP4 SUB DUP2 DUP6 GAS DELEGATECALL SWAP2 POP POP RETURNDATASIZE DUP1 PUSH1 0x0 DUP2 EQ PUSH2 0xEF1 JUMPI PUSH1 0x40 MLOAD SWAP2 POP PUSH1 0x1F NOT PUSH1 0x3F RETURNDATASIZE ADD AND DUP3 ADD PUSH1 0x40 MSTORE RETURNDATASIZE DUP3 MSTORE RETURNDATASIZE PUSH1 0x0 PUSH1 0x20 DUP5 ADD RETURNDATACOPY PUSH2 0xEF6 JUMP JUMPDEST PUSH1 0x60 SWAP2 POP JUMPDEST POP SWAP2 POP SWAP2 POP DUP2 PUSH2 0xD0A JUMPI DUP1 MLOAD ISZERO PUSH2 0xF3B JUMPI DUP1 PUSH1 0x40 MLOAD PUSH32 0x8C379A000000000000000000000000000000000000000000000000000000000 DUP2 MSTORE PUSH1 0x4 ADD PUSH2 0x163 SWAP2 SWAP1 PUSH2 0x1C2F JUMP JUMPDEST PUSH1 0x40 MLOAD PUSH32 0x8C379A000000000000000000000000000000000000000000000000000000000 DUP2 MSTORE PUSH1 0x20 PUSH1 0x4 DUP3 ADD MSTORE PUSH1 0x26 PUSH1 0x24 DUP3 ADD MSTORE PUSH32 0x4C69624469616D6F6E644375743A205F696E69742066756E6374696F6E207265 PUSH1 0x44 DUP3 ADD MSTORE PUSH32 0x7665727465640000000000000000000000000000000000000000000000000000 PUSH1 0x64 DUP3 ADD MSTORE PUSH1 0x84 ADD PUSH2 0x163 JUMP JUMPDEST PUSH2 0xFE5 DUP2 PUSH1 0x40 MLOAD DUP1 PUSH1 0x60 ADD PUSH1 0x40 MSTORE DUP1 PUSH1 0x24 DUP2 MSTORE PUSH1 0x20 ADD PUSH2 0x1CBA PUSH1 0x24 SWAP2 CODECOPY PUSH2 0x15C7 JUMP JUMPDEST PUSH1 0x2 DUP3 ADD DUP1 SLOAD PUSH20 0xFFFFFFFFFFFFFFFFFFFFFFFFFFFFFFFFFFFFFFFF SWAP1 SWAP3 AND PUSH1 0x0 DUP2 DUP2 MSTORE PUSH1 0x1 SWAP5 DUP6 ADD PUSH1 0x20 SWAP1 DUP2 MSTORE PUSH1 0x40 DUP3 KECCAK256 DUP7 ADD DUP6 SWAP1 SSTORE SWAP5 DUP5 ADD DUP4 SSTORE SWAP2 DUP3 MSTORE SWAP3 SWAP1 KECCAK256 ADD DUP1 SLOAD PUSH32 0xFFFFFFFFFFFFFFFFFFFFFFFF0000000000000000000000000000000000000000 AND SWAP1 SWAP2 OR SWAP1 SSTORE JUMP JUMPDEST PUSH20 0xFFFFFFFFFFFFFFFFFFFFFFFFFFFFFFFFFFFFFFFF DUP3 AND PUSH2 0x10F5 JUMPI PUSH1 0x40 MLOAD PUSH32 0x8C379A000000000000000000000000000000000000000000000000000000000 DUP2 MSTORE PUSH1 0x20 PUSH1 0x4 DUP3 ADD MSTORE PUSH1 0x37 PUSH1 0x24 DUP3 ADD MSTORE PUSH32 0x4C69624469616D6F6E644375743A2043616E27742072656D6F76652066756E63 PUSH1 0x44 DUP3 ADD MSTORE PUSH32 0x74696F6E207468617420646F65736E2774206578697374000000000000000000 PUSH1 0x64 DUP3 ADD MSTORE PUSH1 0x84 ADD PUSH2 0x163 JUMP JUMPDEST ADDRESS PUSH20 0xFFFFFFFFFFFFFFFFFFFFFFFFFFFFFFFFFFFFFFFF DUP4 AND SUB PUSH2 0x119A JUMPI PUSH1 0x40 MLOAD PUSH32 0x8C379A000000000000000000000000000000000000000000000000000000000 DUP2 MSTORE PUSH1 0x20 PUSH1 0x4 DUP3 ADD MSTORE PUSH1 0x2E PUSH1 0x24 DUP3 ADD MSTORE PUSH32 0x4C69624469616D6F6E644375743A2043616E27742072656D6F766520696D6D75 PUSH1 0x44 DUP3 ADD MSTORE PUSH32 0x7461626C652066756E6374696F6E000000000000000000000000000000000000 PUSH1 0x64 DUP3 ADD MSTORE PUSH1 0x84 ADD PUSH2 0x163 JUMP JUMPDEST PUSH32 0xFFFFFFFF00000000000000000000000000000000000000000000000000000000 DUP2 AND PUSH1 0x0 SWAP1 DUP2 MSTORE PUSH1 0x20 DUP5 DUP2 MSTORE PUSH1 0x40 DUP1 DUP4 KECCAK256 SLOAD PUSH20 0xFFFFFFFFFFFFFFFFFFFFFFFFFFFFFFFFFFFFFFFF DUP7 AND DUP5 MSTORE PUSH1 0x1 DUP1 DUP9 ADD SWAP1 SWAP4 MSTORE SWAP1 DUP4 KECCAK256 SLOAD PUSH21 0x10000000000000000000000000000000000000000 SWAP1 SWAP2 DIV PUSH12 0xFFFFFFFFFFFFFFFFFFFFFFFF AND SWAP3 SWAP2 PUSH2 0x1224 SWAP2 PUSH2 0x1C49 JUMP JUMPDEST SWAP1 POP DUP1 DUP3 EQ PUSH2 0x136B JUMPI PUSH20 0xFFFFFFFFFFFFFFFFFFFFFFFFFFFFFFFFFFFFFFFF DUP5 AND PUSH1 0x0 SWAP1 DUP2 MSTORE PUSH1 0x1 DUP7 ADD PUSH1 0x20 MSTORE PUSH1 0x40 DUP2 KECCAK256 DUP1 SLOAD DUP4 SWAP1 DUP2 LT PUSH2 0x1266 JUMPI PUSH2 0x1266 PUSH2 0x194D JUMP JUMPDEST PUSH1 0x0 SWAP2 DUP3 MSTORE PUSH1 0x20 DUP1 DUP4 KECCAK256 PUSH1 0x8 DUP4 DIV ADD SLOAD PUSH20 0xFFFFFFFFFFFFFFFFFFFFFFFFFFFFFFFFFFFFFFFF DUP10 AND DUP5 MSTORE PUSH1 0x1 DUP11 ADD SWAP1 SWAP2 MSTORE PUSH1 0x40 SWAP1 SWAP3 KECCAK256 DUP1 SLOAD PUSH1 0x7 SWAP1 SWAP3 AND PUSH1 0x4 MUL PUSH2 0x100 EXP SWAP1 SWAP3 DIV PUSH1 0xE0 SHL SWAP3 POP DUP3 SWAP2 SWAP1 DUP6 SWAP1 DUP2 LT PUSH2 0x12C4 JUMPI PUSH2 0x12C4 PUSH2 0x194D JUMP JUMPDEST PUSH1 0x0 SWAP2 DUP3 MSTORE PUSH1 0x20 DUP1 DUP4 KECCAK256 PUSH1 0x8 DUP4 DIV ADD DUP1 SLOAD PUSH4 0xFFFFFFFF PUSH1 0x7 SWAP1 SWAP5 AND PUSH1 0x4 MUL PUSH2 0x100 EXP SWAP4 DUP5 MUL NOT AND PUSH1 0xE0 SWAP6 SWAP1 SWAP6 SHR SWAP3 SWAP1 SWAP3 MUL SWAP4 SWAP1 SWAP4 OR SWAP1 SSTORE PUSH32 0xFFFFFFFF00000000000000000000000000000000000000000000000000000000 SWAP3 SWAP1 SWAP3 AND DUP3 MSTORE DUP7 SWAP1 MSTORE PUSH1 0x40 SWAP1 KECCAK256 DUP1 SLOAD PUSH20 0xFFFFFFFFFFFFFFFFFFFFFFFFFFFFFFFFFFFFFFFF AND PUSH21 0x10000000000000000000000000000000000000000 PUSH12 0xFFFFFFFFFFFFFFFFFFFFFFFF DUP6 AND MUL OR SWAP1 SSTORE JUMPDEST PUSH20 0xFFFFFFFFFFFFFFFFFFFFFFFFFFFFFFFFFFFFFFFF DUP5 AND PUSH1 0x0 SWAP1 DUP2 MSTORE PUSH1 0x1 DUP7 ADD PUSH1 0x20 MSTORE PUSH1 0x40 SWAP1 KECCAK256 DUP1 SLOAD DUP1 PUSH2 0x13A1 JUMPI PUSH2 0x13A1 PUSH2 0x1C62 JUMP JUMPDEST PUSH1 0x0 DUP3 DUP2 MSTORE PUSH1 0x20 DUP1 DUP3 KECCAK256 PUSH1 0x8 PUSH32 0xFFFFFFFFFFFFFFFFFFFFFFFFFFFFFFFFFFFFFFFFFFFFFFFFFFFFFFFFFFFFFFFF SWAP1 SWAP5 ADD SWAP4 DUP5 DIV ADD DUP1 SLOAD PUSH4 0xFFFFFFFF PUSH1 0x4 PUSH1 0x7 DUP8 AND MUL PUSH2 0x100 EXP MUL NOT AND SWAP1 SSTORE SWAP2 SWAP1 SWAP3 SSTORE PUSH32 0xFFFFFFFF00000000000000000000000000000000000000000000000000000000 DUP6 AND DUP3 MSTORE DUP7 SWAP1 MSTORE PUSH1 0x40 DUP2 KECCAK256 DUP2 SWAP1 SSTORE DUP2 SWAP1 SUB PUSH2 0x97 JUMPI PUSH1 0x2 DUP6 ADD SLOAD PUSH1 0x0 SWAP1 PUSH2 0x143A SWAP1 PUSH1 0x1 SWAP1 PUSH2 0x1C49 JUMP JUMPDEST PUSH20 0xFFFFFFFFFFFFFFFFFFFFFFFFFFFFFFFFFFFFFFFF DUP7 AND PUSH1 0x0 SWAP1 DUP2 MSTORE PUSH1 0x1 DUP1 DUP10 ADD PUSH1 0x20 MSTORE PUSH1 0x40 SWAP1 SWAP2 KECCAK256 ADD SLOAD SWAP1 SWAP2 POP DUP1 DUP3 EQ PUSH2 0x1528 JUMPI PUSH1 0x0 DUP8 PUSH1 0x2 ADD DUP4 DUP2 SLOAD DUP2 LT PUSH2 0x1486 JUMPI PUSH2 0x1486 PUSH2 0x194D JUMP JUMPDEST PUSH1 0x0 SWAP2 DUP3 MSTORE PUSH1 0x20 SWAP1 SWAP2 KECCAK256 ADD SLOAD PUSH1 0x2 DUP10 ADD DUP1 SLOAD PUSH20 0xFFFFFFFFFFFFFFFFFFFFFFFFFFFFFFFFFFFFFFFF SWAP1 SWAP3 AND SWAP3 POP DUP3 SWAP2 DUP5 SWAP1 DUP2 LT PUSH2 0x14C4 JUMPI PUSH2 0x14C4 PUSH2 0x194D JUMP JUMPDEST PUSH1 0x0 SWAP2 DUP3 MSTORE PUSH1 0x20 DUP1 DUP4 KECCAK256 SWAP2 SWAP1 SWAP2 ADD DUP1 SLOAD PUSH32 0xFFFFFFFFFFFFFFFFFFFFFFFF0000000000000000000000000000000000000000 AND PUSH20 0xFFFFFFFFFFFFFFFFFFFFFFFFFFFFFFFFFFFFFFFF SWAP5 DUP6 AND OR SWAP1 SSTORE SWAP3 SWAP1 SWAP2 AND DUP2 MSTORE PUSH1 0x1 DUP10 DUP2 ADD SWAP1 SWAP3 MSTORE PUSH1 0x40 SWAP1 KECCAK256 ADD DUP2 SWAP1 SSTORE JUMPDEST DUP7 PUSH1 0x2 ADD DUP1 SLOAD DUP1 PUSH2 0x153B JUMPI PUSH2 0x153B PUSH2 0x1C62 JUMP JUMPDEST PUSH1 0x0 DUP3 DUP2 MSTORE PUSH1 0x20 DUP1 DUP3 KECCAK256 DUP4 ADD PUSH32 0xFFFFFFFFFFFFFFFFFFFFFFFFFFFFFFFFFFFFFFFFFFFFFFFFFFFFFFFFFFFFFFFF SWAP1 DUP2 ADD DUP1 SLOAD PUSH32 0xFFFFFFFFFFFFFFFFFFFFFFFF0000000000000000000000000000000000000000 AND SWAP1 SSTORE SWAP1 SWAP3 ADD SWAP1 SWAP3 SSTORE PUSH20 0xFFFFFFFFFFFFFFFFFFFFFFFFFFFFFFFFFFFFFFFF DUP9 AND DUP3 MSTORE PUSH1 0x1 DUP10 DUP2 ADD SWAP1 SWAP2 MSTORE PUSH1 0x40 DUP3 KECCAK256 ADD SSTORE POP POP POP POP POP POP POP JUMP JUMPDEST DUP2 EXTCODESIZE DUP2 DUP2 PUSH2 0xD0A JUMPI PUSH1 0x40 MLOAD PUSH32 0x8C379A000000000000000000000000000000000000000000000000000000000 DUP2 MSTORE PUSH1 0x4 ADD PUSH2 0x163 SWAP2 SWAP1 PUSH2 0x1C2F JUMP JUMPDEST DUP1 CALLDATALOAD PUSH20 0xFFFFFFFFFFFFFFFFFFFFFFFFFFFFFFFFFFFFFFFF DUP2 AND DUP2 EQ PUSH2 0x1626 JUMPI PUSH1 0x0 DUP1 REVERT JUMPDEST SWAP2 SWAP1 POP JUMP JUMPDEST PUSH1 0x0 DUP1 DUP4 PUSH1 0x1F DUP5 ADD SLT PUSH2 0x163D JUMPI PUSH1 0x0 DUP1 REVERT JUMPDEST POP DUP2 CALLDATALOAD PUSH8 0xFFFFFFFFFFFFFFFF DUP2 GT ISZERO PUSH2 0x1655 JUMPI PUSH1 0x0 DUP1 REVERT JUMPDEST PUSH1 0x20 DUP4 ADD SWAP2 POP DUP4 PUSH1 0x20 DUP3 DUP6 ADD ADD GT ISZERO PUSH2 0x166D JUMPI PUSH1 0x0 DUP1 REVERT JUMPDEST SWAP3 POP SWAP3 SWAP1 POP JUMP JUMPDEST PUSH1 0x0 DUP1 PUSH1 0x0 DUP1 PUSH1 0x0 PUSH1 0x60 DUP7 DUP9 SUB SLT ISZERO PUSH2 0x168C JUMPI PUSH1 0x0 DUP1 REVERT JUMPDEST DUP6 CALLDATALOAD PUSH8 0xFFFFFFFFFFFFFFFF DUP1 DUP3 GT ISZERO PUSH2 0x16A4 JUMPI PUSH1 0x0 DUP1 REVERT JUMPDEST DUP2 DUP9 ADD SWAP2 POP DUP9 PUSH1 0x1F DUP4 ADD SLT PUSH2 0x16B8 JUMPI PUSH1 0x0 DUP1 REVERT JUMPDEST DUP2 CALLDATALOAD DUP2 DUP2 GT ISZERO PUSH2 0x16C7 JUMPI PUSH1 0x0 DUP1 REVERT JUMPDEST DUP10 PUSH1 0x20 DUP3 PUSH1 0x5 SHL DUP6 ADD ADD GT ISZERO PUSH2 0x16DC JUMPI PUSH1 0x0 DUP1 REVERT JUMPDEST PUSH1 0x20 DUP4 ADD SWAP8 POP DUP1 SWAP7 POP POP PUSH2 0x16F2 PUSH1 0x20 DUP10 ADD PUSH2 0x1602 JUMP JUMPDEST SWAP5 POP PUSH1 0x40 DUP9 ADD CALLDATALOAD SWAP2 POP DUP1 DUP3 GT ISZERO PUSH2 0x1708 JUMPI PUSH1 0x0 DUP1 REVERT JUMPDEST POP PUSH2 0x1715 DUP9 DUP3 DUP10 ADD PUSH2 0x162B JUMP JUMPDEST SWAP7 SWAP10 SWAP6 SWAP9 POP SWAP4 SWAP7 POP SWAP3 SWAP5 SWAP4 SWAP3 POP POP POP JUMP JUMPDEST PUSH32 0x4E487B7100000000000000000000000000000000000000000000000000000000 PUSH1 0x0 MSTORE PUSH1 0x41 PUSH1 0x4 MSTORE PUSH1 0x24 PUSH1 0x0 REVERT JUMPDEST PUSH1 0x40 MLOAD PUSH1 0x60 DUP2 ADD PUSH8 0xFFFFFFFFFFFFFFFF DUP2 GT DUP3 DUP3 LT OR ISZERO PUSH2 0x1778 JUMPI PUSH2 0x1778 PUSH2 0x1726 JUMP JUMPDEST PUSH1 0x40 MSTORE SWAP1 JUMP JUMPDEST PUSH1 0x40 MLOAD PUSH1 0x1F DUP3 ADD PUSH32 0xFFFFFFFFFFFFFFFFFFFFFFFFFFFFFFFFFFFFFFFFFFFFFFFFFFFFFFFFFFFFFFE0 AND DUP2 ADD PUSH8 0xFFFFFFFFFFFFFFFF DUP2 GT DUP3 DUP3 LT OR ISZERO PUSH2 0x17C5 JUMPI PUSH2 0x17C5 PUSH2 0x1726 JUMP JUMPDEST PUSH1 0x40 MSTORE SWAP2 SWAP1 POP JUMP JUMPDEST PUSH1 0x0 PUSH8 0xFFFFFFFFFFFFFFFF DUP3 GT ISZERO PUSH2 0x17E7 JUMPI PUSH2 0x17E7 PUSH2 0x1726 JUMP JUMPDEST POP PUSH1 0x5 SHL PUSH1 0x20 ADD SWAP1 JUMP JUMPDEST PUSH1 0x0 PUSH2 0x1804 PUSH2 0x17FF DUP5 PUSH2 0x17CD JUMP JUMPDEST PUSH2 0x177E JUMP JUMPDEST DUP4 DUP2 MSTORE PUSH1 0x20 DUP1 DUP3 ADD SWAP2 SWAP1 PUSH1 0x5 DUP7 DUP2 SHL DUP7 ADD CALLDATASIZE DUP2 GT ISZERO PUSH2 0x1822 JUMPI PUSH1 0x0 DUP1 REVERT JUMPDEST DUP7 JUMPDEST DUP2 DUP2 LT ISZERO PUSH2 0x1940 JUMPI DUP1 CALLDATALOAD PUSH8 0xFFFFFFFFFFFFFFFF DUP1 DUP3 GT ISZERO PUSH2 0x1845 JUMPI PUSH1 0x0 DUP1 DUP2 REVERT JUMPDEST DUP2 DUP11 ADD SWAP2 POP PUSH1 0x60 DUP3 CALLDATASIZE SUB SLT ISZERO PUSH2 0x185B JUMPI PUSH1 0x0 DUP1 DUP2 REVERT JUMPDEST PUSH2 0x1863 PUSH2 0x1755 JUMP JUMPDEST PUSH2 0x186C DUP4 PUSH2 0x1602 JUMP JUMPDEST DUP2 MSTORE DUP7 DUP4 ADD CALLDATALOAD PUSH1 0x3 DUP2 LT PUSH2 0x1880 JUMPI PUSH1 0x0 DUP1 DUP2 REVERT JUMPDEST DUP2 DUP9 ADD MSTORE PUSH1 0x40 DUP4 DUP2 ADD CALLDATALOAD DUP4 DUP2 GT ISZERO PUSH2 0x1898 JUMPI PUSH1 0x0 DUP1 DUP2 REVERT JUMPDEST SWAP4 SWAP1 SWAP4 ADD SWAP3 CALLDATASIZE PUSH1 0x1F DUP6 ADD SLT PUSH2 0x18AF JUMPI PUSH1 0x0 SWAP3 POP DUP3 DUP4 REVERT JUMPDEST DUP4 CALLDATALOAD SWAP3 POP PUSH2 0x18BF PUSH2 0x17FF DUP5 PUSH2 0x17CD JUMP JUMPDEST DUP4 DUP2 MSTORE SWAP3 DUP8 SHL DUP5 ADD DUP9 ADD SWAP3 DUP9 DUP2 ADD SWAP1 CALLDATASIZE DUP6 GT ISZERO PUSH2 0x18DC JUMPI PUSH1 0x0 DUP1 DUP2 REVERT JUMPDEST SWAP5 DUP10 ADD SWAP5 JUMPDEST DUP5 DUP7 LT ISZERO PUSH2 0x1929 JUMPI DUP6 CALLDATALOAD PUSH32 0xFFFFFFFF00000000000000000000000000000000000000000000000000000000 DUP2 AND DUP2 EQ PUSH2 0x191A JUMPI PUSH1 0x0 DUP1 DUP2 REVERT JUMPDEST DUP3 MSTORE SWAP5 DUP10 ADD SWAP5 SWAP1 DUP10 ADD SWAP1 PUSH2 0x18E1 JUMP JUMPDEST SWAP2 DUP4 ADD SWAP2 SWAP1 SWAP2 MSTORE POP DUP9 MSTORE POP POP SWAP5 DUP4 ADD SWAP5 DUP4 ADD PUSH2 0x1824 JUMP JUMPDEST POP SWAP3 SWAP8 SWAP7 POP POP POP POP POP POP POP JUMP JUMPDEST PUSH32 0x4E487B7100000000000000000000000000000000000000000000000000000000 PUSH1 0x0 MSTORE PUSH1 0x32 PUSH1 0x4 MSTORE PUSH1 0x24 PUSH1 0x0 REVERT JUMPDEST PUSH32 0x4E487B7100000000000000000000000000000000000000000000000000000000 PUSH1 0x0 MSTORE PUSH1 0x21 PUSH1 0x4 MSTORE PUSH1 0x24 PUSH1 0x0 REVERT JUMPDEST PUSH32 0x4E487B7100000000000000000000000000000000000000000000000000000000 PUSH1 0x0 MSTORE PUSH1 0x11 PUSH1 0x4 MSTORE PUSH1 0x24 PUSH1 0x0 REVERT JUMPDEST PUSH1 0x0 PUSH32 0xFFFFFFFFFFFFFFFFFFFFFFFFFFFFFFFFFFFFFFFFFFFFFFFFFFFFFFFFFFFFFFFF DUP3 SUB PUSH2 0x1A0B JUMPI PUSH2 0x1A0B PUSH2 0x19AB JUMP JUMPDEST POP PUSH1 0x1 ADD SWAP1 JUMP JUMPDEST PUSH1 0x0 JUMPDEST DUP4 DUP2 LT ISZERO PUSH2 0x1A2D JUMPI DUP2 DUP2 ADD MLOAD DUP4 DUP3 ADD MSTORE PUSH1 0x20 ADD PUSH2 0x1A15 JUMP JUMPDEST POP POP PUSH1 0x0 SWAP2 ADD MSTORE JUMP JUMPDEST PUSH1 0x0 DUP2 MLOAD DUP1 DUP5 MSTORE PUSH2 0x1A4E DUP2 PUSH1 0x20 DUP7 ADD PUSH1 0x20 DUP7 ADD PUSH2 0x1A12 JUMP JUMPDEST PUSH1 0x1F ADD PUSH32 0xFFFFFFFFFFFFFFFFFFFFFFFFFFFFFFFFFFFFFFFFFFFFFFFFFFFFFFFFFFFFFFE0 AND SWAP3 SWAP1 SWAP3 ADD PUSH1 0x20 ADD SWAP3 SWAP2 POP POP JUMP JUMPDEST PUSH1 0x0 PUSH1 0x60 DUP1 DUP4 ADD DUP2 DUP5 MSTORE DUP1 DUP8 MLOAD DUP1 DUP4 MSTORE PUSH1 0x80 SWAP3 POP DUP3 DUP7 ADD SWAP2 POP DUP3 DUP2 PUSH1 0x5 SHL DUP8 ADD ADD PUSH1 0x20 DUP1 DUP12 ADD PUSH1 0x0 JUMPDEST DUP5 DUP2 LT ISZERO PUSH2 0x1BAB JUMPI PUSH32 0xFFFFFFFFFFFFFFFFFFFFFFFFFFFFFFFFFFFFFFFFFFFFFFFFFFFFFFFFFFFFFF80 DUP11 DUP6 SUB ADD DUP7 MSTORE DUP2 MLOAD DUP9 DUP6 ADD PUSH20 0xFFFFFFFFFFFFFFFFFFFFFFFFFFFFFFFFFFFFFFFF DUP3 MLOAD AND DUP7 MSTORE DUP5 DUP3 ADD MLOAD PUSH1 0x3 DUP2 LT PUSH2 0x1B32 JUMPI PUSH32 0x4E487B7100000000000000000000000000000000000000000000000000000000 PUSH1 0x0 MSTORE PUSH1 0x21 PUSH1 0x4 MSTORE PUSH1 0x24 PUSH1 0x0 REVERT JUMPDEST DUP7 DUP7 ADD MSTORE PUSH1 0x40 SWAP2 DUP3 ADD MLOAD SWAP2 DUP7 ADD DUP11 SWAP1 MSTORE DUP2 MLOAD SWAP1 DUP2 SWAP1 MSTORE SWAP1 DUP5 ADD SWAP1 PUSH1 0x0 SWAP1 DUP10 DUP8 ADD SWAP1 JUMPDEST DUP1 DUP4 LT ISZERO PUSH2 0x1B96 JUMPI DUP4 MLOAD PUSH32 0xFFFFFFFF00000000000000000000000000000000000000000000000000000000 AND DUP3 MSTORE SWAP3 DUP7 ADD SWAP3 PUSH1 0x1 SWAP3 SWAP1 SWAP3 ADD SWAP2 SWAP1 DUP7 ADD SWAP1 PUSH2 0x1B54 JUMP JUMPDEST POP SWAP8 DUP6 ADD SWAP8 SWAP6 POP POP POP SWAP1 DUP3 ADD SWAP1 PUSH1 0x1 ADD PUSH2 0x1AA9 JUMP JUMPDEST POP POP PUSH20 0xFFFFFFFFFFFFFFFFFFFFFFFFFFFFFFFFFFFFFFFF DUP11 AND SWAP1 DUP9 ADD MSTORE DUP7 DUP2 SUB PUSH1 0x40 DUP9 ADD MSTORE PUSH2 0x1BDA DUP2 DUP10 PUSH2 0x1A36 JUMP JUMPDEST SWAP11 SWAP10 POP POP POP POP POP POP POP POP POP POP JUMP JUMPDEST PUSH1 0x0 PUSH12 0xFFFFFFFFFFFFFFFFFFFFFFFF DUP1 DUP4 AND DUP2 DUP2 SUB PUSH2 0x1C09 JUMPI PUSH2 0x1C09 PUSH2 0x19AB JUMP JUMPDEST PUSH1 0x1 ADD SWAP4 SWAP3 POP POP POP JUMP JUMPDEST PUSH1 0x0 DUP3 MLOAD PUSH2 0x1C25 DUP2 DUP5 PUSH1 0x20 DUP8 ADD PUSH2 0x1A12 JUMP JUMPDEST SWAP2 SWAP1 SWAP2 ADD SWAP3 SWAP2 POP POP JUMP JUMPDEST PUSH1 0x20 DUP2 MSTORE PUSH1 0x0 PUSH2 0x1C42 PUSH1 0x20 DUP4 ADD DUP5 PUSH2 0x1A36 JUMP JUMPDEST SWAP4 SWAP3 POP POP POP JUMP JUMPDEST DUP2 DUP2 SUB DUP2 DUP2 GT ISZERO PUSH2 0x1C5C JUMPI PUSH2 0x1C5C PUSH2 0x19AB JUMP JUMPDEST SWAP3 SWAP2 POP POP JUMP JUMPDEST PUSH32 0x4E487B7100000000000000000000000000000000000000000000000000000000 PUSH1 0x0 MSTORE PUSH1 0x31 PUSH1 0x4 MSTORE PUSH1 0x24 PUSH1 0x0 REVERT INVALID 0x4C PUSH10 0x624469616D6F6E644375 PUSH21 0x3A205F696E6974206164647265737320686173206E PUSH16 0x20636F64654C69624469616D6F6E6443 PUSH22 0x743A204E657720666163657420686173206E6F20636F PUSH5 0x65A2646970 PUSH7 0x73582212206697 0xF6 0xC8 DUP1 0xDD 0xE8 0xE5 CREATE 0xBF SUB OR ADDMOD MSTORE PUSH17 0x5678EB5A74FE4478FBC3EDD37CCA5DE42D PUSH5 0x736F6C6343 STOP ADDMOD EQ STOP CALLER "
    },
    "gasEstimates": {
      "creation": {
        "codeDepositCost": "1488600",
        "executionCost": "1555",
        "totalCost": "1490155"
      },
      "external": {
        "diamondCut((address,uint8,bytes4[])[],address,bytes)": "infinite"
      }
    },
    "methodIdentifiers": {
      "diamondCut((address,uint8,bytes4[])[],address,bytes)": "1f931c1c"
    }
  },
  "storageLayout": {
    "storage": [],
    "types": null
  },
  "userdoc": {
    "kind": "user",
    "methods": {
      "diamondCut((address,uint8,bytes4[])[],address,bytes)": {
        "notice": "Add/replace/remove any number of functions and optionally execute         a function with delegatecall"
      }
    },
    "version": 1
  },
  "solcInputHash": "e14ac76a5778c8007b13c8b9b81ebb87"
}